:020000040800F2
:1080000000C0002055E70008D1980008D398000868
:10801000D5980008D7980008D998000800000000FB
:10802000000000000000000000000000DB980008D5
:10803000DD98000800000000DF980008E1980008C3
:108040009DE700089DE700089DE700089DE7000800
:108050009DE700089DE700089DE700089DE70008F0
:108060009DE700089DE700089DE700089DE70008E0
:108070009DE700089DE700089DE700089DE70008D0
:108080009DE700089DE700089DE700089DE70008C0
:10809000E99800089DE700089DE700089DE70008B3
:1080A0009DE700089DE700089DE700089DE70008A0
:1080B0009DE700089DE700089DE700089DE7000890
:1080C0009DE700089DE700089DE700089DE7000880
:1080D0009DE700089DE700089DE700089DE7000870
:1080E0009DE700089DE700089DE700089DE7000860
:1080F0009DE700089DE700089DE700089DE7000850
:108100009DE700089DE700089DE700089DE700083F
:108110009DE700089DE700089DE700089DE700082F
:108120009DE700089DE700089DE700089DE700081F
:10813000000000000000000000000000000000003F
:10814000000000000000000000000000000000002F
:10815000000000000000000000000000000000001F
:10816000000000000000000000000000000000000F
:1081700000000000000000000000000000000000FF
:1081800000000000000000000000000000000000EF
:1081900000000000000000000000000000000000DF
:1081A00000000000000000000000000000000000CF
:1081B00000000000000000000000000000000000BF
:1081C00000000000000000000000000000000000AF
:1081D000000000000000000000000000000000009F
:0481E0005FF8E0F173
:1081E40010B5054C237833B9044B13B10448AFF3ED
:1081F40000800123237010BD14040020000000003F
:108204001CE8000808B5034B1BB103490348AFF34E
:10821400008008BD00000000180400201CE80008CD
:108224000A4B4FF480521A604FF4005159604FF4D6
:10823400405199604FF4E041D96001211977597791
:108244005A611A6140F2FF729A61704780040020FB
:1082540010B582B00446134A1168038803EB530037
:1082640001446380002020809269934216D2012B3E
:1082740016D902220DF1060001F06CFB638813F09D
:10828400010F06D0BDF806301B092380002002B080
:1082940010BDBDF80630C3F30B03F6E70120F6E783
:1082A4000120F4E78004002038B50C46084BDD6853
:1082B40059692388023B8AB203FB015101F04AFB4E
:1082C4002046FFF7C5FF00B938BD0220FCE700BF18
:1082D4008004002030B583B00C460B884B8000230B
:1082E4000B80012508E0BDF80420C2F30B0218E05E
:1082F40002B905BB01332380238840F6FE72934202
:1083040016D80E4A11681944022201EB530101A840
:1083140001F020FB238813F0010FE4D0BDF8042002
:108324001209002AE4D1002DE2D161888B42DFD00A
:10833400002003B030BDA3800025DBE780040020CB
:108344002DE9F0410546B1F802800F8808EB580486
:10835400134B1E6804F470421644C4F30B049A8A47
:10836400314601F0F7FA18F0010F0FD02B5D03F03E
:108374000F0303EB07132B5501343F092F553146E7
:10838400284601F0DBFA0020BDE8F0812F550134C6
:108394002B5723F00F03C7F303271F432F55EEE793
:1083A4008004002038B505460C46114BDA6859693B
:1083B4002388023B03FB012101F0C0FA2046FFF7AA
:1083C40047FF88B96288238803B138BD22802146DB
:1083D4002846FFF77FFF48B921462846FFF7B0FF3C
:1083E4000028F2D00120F0E70220EEE70320ECE7BA
:1083F400800400202DE9F0470746884692469946B6
:10840400002313801B4B9B68C9F80030D9F8001077
:10841400184BDB68994228D2164B9A8A384601F0E9
:1084240099FA00263246134B5B699E42EED2002431
:108434000A2C12D83319FD5CCDB118F804309D42D2
:108444000BD10A2C02D00134A4B2F1E71A32BB5A80
:10845400AAF800300020BDE8F087D9F800302033B6
:10846400C9F800302036B6B2DCE70320F3E7042075
:10847400F1E700BF800400202DE9F84304460E46CE
:1084840017469846FFF7B6FF0546042802D028464B
:10849400BDE8F88339462046FFF71CFF054608B1BE
:1084A4000325F4E7D8F80030C3F30B08A3EB08095D
:1084B4000C4B9A8A4946204601F04CFA002304E00A
:1084C40003EB0802F15CA15401330A2BF8D908F13B
:1084D4001A083B8824F808304946204601F02EFA51
:1084E400D5E700BF80040020F8B504460F461146C6
:1084F4001D4640F6FF731380FFF722FF2968134ED1
:10850400B28A21F47F6121F00F01204601F022FAA2
:108514002B68C3F30B030B332022E2542B68C3F301
:108524000B031C33E750296821F47F6121F00F010C
:10853400204601F003FAB28A3168204601F00AFAB3
:108544007168204601F0FAF90020F8BD800400208B
:108554004FF6FF73984248D020F01F039BB24FF6AA
:10856400E072934243D0C0F30A0240F2FF739A428E
:108574003FD020F4FC639BB24FF61F0293423AD0E3
:1085840000F4FC63B3F5FC6F37D020F4844323F08C
:108594001F039BB24BF6E052934230D040F2F753A4
:1085A40083432ED020F48F4323F068039BB24BF611
:1085B4001702934227D000F4BC63B3F5BC6F24D0F8
:1085C40047F6EF33834322D040F21F53834320D036
:1085D40000F47843B3F5784F1DD000F01F001F2836
:1085E40001D00D2070470C207047002070470120F7
:1085F400704703207047052070470720704702200A
:1086040070470420704706207047082070470920EF
:1086140070470A2070470B207047000070B588B07F
:1086240004F0C2F8014605A800F06CFE50238DF852
:108634001C3052238DF81D304D238DF81E3001ABB4
:1086440002AA05A96E48FFF7D5FE20B1042830D050
:10865400092008B070BDBDF80830ADF810304223D1
:108664008DF81C3041238DF81D304B238DF81E30BE
:1086740001AB02AA05A96248FFF7FEFE002840F0FC
:10868400B28004A95E48FFF70FFE002840F0AD80D9
:1086940002A95B48FFF786FE002840F0A88001ABE2
:1086A40002AA4FF400715648FFF71EFF002840F05D
:1086B400A08050238DF81C3052238DF81D304D239B
:1086C4008DF81E3001AB02AA05A94D48FFF7D4FE70
:1086D4000446002840F08F80494D8022002128461E
:1086E40000F051FD474B1B881B029BB210332846F8
:1086F40020F8023B00210FE0434A02EB0112938968
:10870400054625F8043B967BD37B43F0080303EB33
:1087140006234380013128461929EDD900230CE0B2
:108724003A4931F81350024622F8045B03F10A0572
:1087340031F81510418001331046092BF0D900237C
:108744000EE033490A6832F81350024622F8045BFB
:1087540003F10A05096831F8151041800133104608
:10876400092BEED92B4A1188034623F8041B52889F
:10877400428000210BE0284A32F81120120292B202
:10878400264830F81100024423F8022B0131032952
:10879400F1D9002207E0101D214901EB001189895C
:1087A40023F8021B0132022AF5D90023B3F5FF7F17
:1087B40005D8134AD25C2244D4B20133F6E71048F8
:1087C400624280F8FF2102A9FFF7ECFDA8B901ABD2
:1087D40002AA4FF400710A48FFF786FE00283FF40E
:1087E40038AF092035E70A2033E7082031E70920AC
:1087F4002FE709202DE70A202BE7092029E700BFEE
:10880400A4040020B0000020B400002010000020C8
:108814003C390020E4020020E8020020F00200209D
:1088240054020020F8B50646264B9C684FF0FF35ED
:10883400244BDB68A3423CD9224B9A8A2146224826
:1088440001F088F8002122E05A1F022A26D80133B9
:108854000A2BF9D94B1D1C4818443FB31A4AD25C61
:10886400303A4378303B02EB820202EB820203EBA4
:1088740083035B0003EB82039BB2827813449BB2B5
:10888400303B1BB2AB4200DD1D46203420310D4B82
:108894005B698B42CCD900230127D9E7CA180A485F
:1088A400805CF25C9042D2D00027D0E74FF0FF33D7
:1088B400E8E740F2E6339D4201DD4FF0FF35681CE6
:1088C40080B2F8BD80040020A404002070B586B0F6
:1088D40003F06AFF014603A800F014FD50238DF84D
:1088E400143052238DF815304D238DF816300023A3
:1088F4008DF817306B4601AA03A94B48FFF77AFDA0
:10890400002840F0878001A94748FFF7CDFC0446C2
:10891400002840F08380444B1988CBB2102B7FD1C0
:108924000023B3F5007F05D23F4AD05C2044C4B293
:108934000133F6E7002C75D1090A3C4B198000215C
:108944003B4B0DE018883B4A02EB0112908158889A
:10895400000A9073588840F00800D0730131043342
:108964001929EFD900220CE0194631F8045B32488A
:1089740020F812505D8802F10A0320F813500132E6
:108984000B46092AF0D900220EE02C480568194646
:1089940031F8046B25F8126002F10A0500685B885F
:1089A40020F8153001320B46092AEED91A4632F85E
:1089B400040B234908805B884B8000230BE011885B
:1089C400090A204820F8131032F8021BC9B21E48C5
:1089D40020F813100133032BF1D9002307E01D1DE8
:1089E40032F8020B194901EB051188810133022B7E
:1089F400F5D900250BE005EB4500154B03EB800092
:108A0400FFF710FF114B03EB051398810135032D7C
:108A1400F1D900E00824204606B070BD0824FAE726
:108A24000524F8E70624F6E7A4040020B00000209B
:108A3400A6040020B4000020100000203C390020CF
:108A4400E4020020E8020020F0020020540200208A
:108A5400F8E800082DE9F04188B05A4B03AC93E8DC
:108A6400070084E807002046FFF7DCFE014606A85D
:108A740000F0EAFB9DF81A308DF811309DF81B3098
:108A84008DF812309DF81C308DF813306B4601AA16
:108A940021464D48FFF7F0FC002840F08B804B4EF8
:108AA400494C06F1300735460FCD20606160A26065
:108AB400E3602E461034BD42F5D128682060AB88AF
:108AC400A38000210F2919D8414B33F811208B00C2
:108AD40003F13605141204F0F8043B48445503F13D
:108AE4003705D41004F0FC044455D20003F13804D3
:108AF400025539330022C2540131E3E700263746D8
:108B04007625EF2E46D8002402E0002302341D46C9
:108B1400B4F5C87F3CD2A0B2B1B2421C0B4692B2AB
:108B240003F01EFE03F02CFEFFF712FD4FEA0018BF
:108B340003F026FEFFF70CFD40B26B1C9BB240EA2B
:108B44000800214A5055234A12689342DED301A9F2
:108B54001D48FFF727FC78BB0C2E0BD91E4BB3F82E
:108B64004611B3F8440101F093FB1C4A00210B2089
:108B740001F09AFB0C2EC8D97D1CADB2C7F341029B
:108B840000214FF4BA7001F01BFC2F460023BDE70F
:108B94000136B6E725B101A90B48FFF703FC78B904
:108BA4006B4601AA4FF43C410748FFF79DFC20B1F6
:108BB400092002E00A2000E0092008B0BDE8F081A5
:108BC4000920FAE744E80008A4040020C0E80008EB
:108BD400A0E80008A8140020B400002034E800082D
:108BE40010B588B0014606A800F02EFB274B03AC55
:108BF40093E8070084E807009DF81A308DF81130D7
:108C04009DF81B308DF812309DF81C308DF8133010
:108C14006B4601AA21461E48FFF72EFC70BB4FF499
:108C2400806200211A4800F0AEFA002307E0194AD6
:108C340032F8130003F29C52174988540133032B72
:108C4400F5D9134C4FF4B4721349204600F092FA4C
:108C540001A92046FFF7A6FB98B96B4601AA4FF479
:108C640000612046FFF740FC68B90C4A9389528999
:108C7400934204D20133094A938100E00A2008B0E8
:108C840010BD0920FBE70920F9E700BF50E8000800
:108C9400A4040020F0020020D83100205402002057
:108CA40010B588B0014606A800F0CEFA154B03AC07
:108CB40093E8070084E807009DF81A308DF8113016
:108CC4009DF81B308DF812309DF81C308DF8133050
:108CD4006B4601AA21460C48FFF78CFB044610B1F1
:108CE400204608B010BD01A90748FFF7DDFA044685
:108CF40030B94FF4B4720449044800F03BFAEFE78A
:108D04000824EDE750E80008A404002040390020BE
:108D14002DE9F04188B0014606A800F095FA584BB9
:108D240003AC93E8070084E807009DF81A308DF837
:108D340011309DF81B308DF812309DF81C308DF8E1
:108D440013306B4601AA21464E48FFF795FB0028D5
:108D540040F08C800027FF4317F042070BD04721D7
:108D6400002003F0A3FD07464721012003F09EFDE8
:108D74000743FFB2EFE700224521104603F03AFD16
:108D840000224521012003F035FDB84607E001A982
:108D94003C48FFF707FB00286AD108F10108B8F145
:108DA400030F18D83E46374DB6F5806FEFD200203A
:108DB40003F098FD0446012003F094FD230A2B7070
:108DC400030A6B7004F00104AC7000F00100E87059
:108DD40001360435E8E72B4C4FF48062002120462D
:108DE40000F0D1F93B4620460FE0274901EB03117F
:108DF4008A89044624F8042B8D7BCA7B42F008023E
:108E040002EB0522428020460133192B16D8012B90
:108E1400EBD0032BE9D00A2BE7D0102BE5D0062B9F
:108E2400F2D1E2E7194B33F817301B029BB2184A10
:108E340032F81720134420F8023B0137032FF1D9ED
:108E440001A91048FFF7AEFAA0B96B4601AA4FF486
:108E540084410C48FFF748FB80B90E4A938D528D2C
:108E6400934208D201330B4A938504E00A2002E0BE
:108E7400092000E0092008B0BDE8F0810920FAE7E4
:108E84005CE80008A4040020B4000020E8020020EC
:108E9400F0020020540200202DE9F0438BB001467B
:108EA40008A800F0D1F9AA4B03AC93E8070084E8C2
:108EB40007009DF822308DF811309DF823308DF88D
:108EC40012309DF824308DF813306B4601AA2146E8
:108ED400A048FFF7D1FA002840F02A819D4B9E4A12
:108EE400106818609D4A1168908951F830105960D3
:108EF4001169908B51F83010996099490868D860CD
:108F040009791974116A908D51F83010C3F8111051
:108F1400116B908F51F83010C3F8151091490868FF
:108F2400C3F81900097959778F490868C3F81E00F6
:108F3400097983F822108D4C03CCC3F82300C3F8BD
:108F44002710D2F8A010B2F8AC2001EBC20051F8FF
:108F54003220C3F82B20027983F82F200D2283F8C6
:108F640030200A2283F831200026F64316F0420608
:108F74000BD04721002003F099FC0646472101202D
:108F840003F094FC0643F6B2EFE7002245211046B5
:108F940003F030FC00224521012003F02BFCB146F4
:108FA400B046322558E001341D46022C1DD80AABC8
:108FB400234413F80C2CC2B16B1C66494A55B3F513
:108FC400805FF0D301A96348FFF7ECF9002840F073
:108FD400B18008F10105C8F3410200214FF4B170DA
:108FE40001F0EEF9A8463346DDE76B1C594A2C2103
:108FF4005155B3F5805F0CD201371D46032F1BD8A2
:109004000AAB3B4413F8101C07A800F05BF9344684
:10901400CBE701A91046FFF7C5F9002840F08E8080
:1090240008F10104C8F3410200214FF4B17001F0CA
:10903400C7F9A0463346DFE76B1C464A0D2151555C
:10904400B3F5805F22D25D1C424A0A21D154B5F5A2
:10905400805F2DD209F10109B9F5805F3AD2002071
:1090640003F040FC0446012003F03CFC230A8DF885
:109074001830030A8DF8193004F001048DF81A40F1
:1090840000F001008DF81B003746B7E701A9104630
:10909400FFF788F9002853D108F10104C8F341020D
:1090A40000214FF4B17001F08BF9A0463346CAE7B2
:1090B40001A91046FFF776F9002843D108F101040D
:1090C400C8F3410200214FF4B17001F079F9A046D0
:1090D4003546BFE7DDB16B1C1E4C0D226255A81C42
:1090E4000A22E254C0F580520021204405F07AFBA4
:1090F40001A92046FFF756F930BB08F10104C8F373
:10910400410200214FF4B17001F05AF9A0466B46B8
:1091140001AA4FEA08310F48FFF7E6F9B0B9144A3B
:10912400938F528F934206D20133114A938702E000
:109134000A2000E009200BB0BDE8F0830920FAE71B
:109144000920F8E70920F6E70920F4E70920F2E707
:1091540094E80008A404002068E80008B400002093
:1091640070E8000878E8000880E8000888E800084B
:1091740054020020531E2AB151F8042B40F8042B4A
:109184001A46F7E77047531E1AB140F8041B1A46F3
:10919400F9E7704702460B4639B1013B13F0FF0370
:1091A40002D002FB00F0F8E770470120704700008E
:1091B40042F20F7399422DD830B4204AA2FB0132F7
:1091C400930903F1300404704FF47A7202FB131311
:1091D40099B21B4BA3FB01235B0903F13005EDB2EC
:1091E4004570642202FB13139BB2164AA2FB0312BE
:1091F400D20802F13001C9B2817002EB8202A3EB02
:1092040042039BB23033C37000230371302C0CD063
:1092140030BC70474F2303707623437065238370FB
:109224007223C37000230371704720230370302D11
:10923400EED143703029EBD18370E9E7D34D62104E
:109244001F85EB51CDCCCCCC10B41A4CA4FB01340B
:10925400630B03F13002027042F2107202FB13132B
:109264009AB2154BA3FB02139B0903F13001417021
:109274004FF47A7101FB13239AB2104BA3FB021330
:109284005B0903F130018170642101FB13239BB25C
:109294000B4AA2FB0312D20802F13001C17002EBA7
:1092A4008202A3EB42039BB2303303710023437168
:1092B40010BC70475917B7D1D34D62101F85EB51BD
:1092C400CDCCCCCC0D4BA3FB01235B0903F13002C5
:1092D4000270642202FB1311C9B2094BA3FB0123E0
:1092E400DB0803F13002427003EB8303A1EB43017B
:1092F400C9B2303181700023C37070471F85EB51B0
:10930400CDCCCCCC1C2204E0303300F8013B043A31
:1093140052B2002A09DB21FA02F303F00F03092BEE
:10932400F2DD373300F8013BF1E7002303707047A7
:1093340008B90020704710B504468008FFF7F8FF0D
:109344004000013000FB00F3A34202D9013880B28F
:1093540010BD80B2FCE70000F0B4861CB1F1004FF0
:1093640016D021B3002931DDC71C2B2383708C4612
:109374000A4605250024092A2DD9A44BA3FB023251
:10938400D2080134032CF6D905EB85056D00F2E70C
:10939400202282702E23C37002714271C31D827118
:1093A4000022C271042202709B1B43702BE12B2309
:1093B40083703022C2702E2303714271C31D8271E7
:1093C4000022C27102709B1B43701CE1C71C2D2339
:1093D40083704942CBE7022C01D905EB0C010A4604
:1093E400002404E0894BA3FB0232D2080134092A89
:1093F400F8D8874BA3FB04235B080370092C00F205
:10940400FC80DFE814F0EF00D700BD00A100880065
:109414006E00500037001E000A007E4A82FB0132B3
:10942400CB17C3EB227303F130043A4602F8024B24
:10943400794C04FB13112E237B701746022200245F
:1094440000E00322754B83FB0153CD17C5EB636525
:109454003B46303503F8015B013A00F0C7806F4F9B
:1094640087FB0157CD17C5EB67656D4F07FB1511DA
:109474001F4600E003226B4B83FB0153CD17C5EB62
:10948400A3553B46303503F8015B013A00F0AE804A
:10949400644F87FB0157CD17C5EBA755624F07FBF8
:1094A40015111F4600E00322604B83FB0153CD17C7
:1094B400C5EBA3453B46303503F8015B013A00F0A8
:1094C40095805A4D85FB015CCD17C5EBAC45DFF8A3
:1094D40078C10CFB1511E4B12E237B7002370024F4
:1094E40000E00322524B83FB0153CD17C5EB6335D8
:1094F4003B46303503F8015B013A77D04C4F87FB8C
:109504000157CD17C5EB67354A4F07FB15111F46A9
:1095140002E01F46E6E70322474B83FB0153CD17C6
:10952400C5EB23353B46303503F8015B013A5DD08A
:10953400414F87FB0157CD17C5EB273542F2107712
:1095440007FB15111F4600E022463C4B83FB0153E9
:10955400CD17C5EBA3153B46303503F8015B013A43
:1095640044D0364D85FB015CCD17C5EBAC154FF4EB
:109574007A7C0CFB1511DCB12E237B70023700E0E2
:1095840003222F4B83FB0143CC17C4EB63143B46EC
:10959400303403F8014B013A28D0294D85FB0145AD
:1095A400CC17C4EB6514642505FB14111F4602E0B7
:1095B4001F46E6E70322234B83FB0143CC17C4EB8E
:1095C400A3043B46303403F8014B012A0ED01D4C52
:1095D40084FB0124CA17C2EBA40202EB8202A1EBB2
:1095E40042011F463B46303103F8011BC21D9A421B
:1095F40005D9202203F8012BF8E73B46F6E70022C1
:109604001A709B1B4370F0BC704700BFCDCCCCCC10
:10961400ABAAAAAAA12FB84400CA9A3B893BE65533
:1096240000E1F5056BCA5F6B8096980083DE1B43EF
:1096340089B5F814A0860100AD8BDB68D34D6210A8
:109644001F85EB516766666640420F00F0B5871CC4
:10965400B1F1004F12D002F1010CF1B10C46052614
:109664000025092C27D98A4BA3FB0434E4080135CF
:10967400AA42F6D206EB86067600F2E72022827032
:109684002E23C37002714271C31D82710022C27104
:1096940004220270DB1B4370F8E0302282702E2318
:1096A400C37002714271C31D82710022C2710270C3
:1096B400DB1B4370EAE0954200D331440C4600259D
:1096C40004E0734BA3FB0434E4080135092CF8D8F7
:1096D400704BA3FB05435B080370092D00F2D08097
:1096E400DFE805F0CCAF9D85715D44301D054C0A63
:1096F400694BA3FB0434E409C31C30348470013A7D
:1097040000F0B4804B0A644CA4FB0343DB09634CB4
:1097140004FB1311031D2E24C470002500E03B46F6
:109724005F4CA4FB0164640E303403F8014B013A2E
:1097340000F09C805A4CA4FB0164640E594E06FB55
:10974400141100E03B46584CA4FB0164A40D3034D2
:1097540003F8014B013A00F08980534CA4FB0164E7
:10976400A40D524E06FB14111E4600E03E46504C1A
:10977400A4FB0134A40C3346303403F8014B013A02
:1097840074D04B4CA4FB01E4A40CDFF83CE10EFBC9
:1097940014112DB1B31C2E247470002500E03B4637
:1097A4004C09444EA6FB0464E409303403F8014B2D
:1097B400013A5BD04C093F4EA6FB0464E4093E4EDB
:1097C40006FB141100E03B463C4CA4FB0164640B13
:1097D400303403F8014B013A48D0384CA4FB0164FF
:1097E400640B42F2107606FB14111E4600E03E465E
:1097F400334CA4FB0134A4093346303403F8014B41
:10980400013A33D02E4CA4FB01E4A4094FF47A7E30
:109814000EFB141125B1B31C2E24747000E03B46DA
:10982400284CA4FB01546409303403F8014B013A79
:109834001CD0244CA4FB01546409642505FB1411B9
:1098440000E03B46124CA4FB0154E408303403F816
:10985400014B012A0AD00E4AA2FB0142D20802EBB4
:109864008202A1EB4201303103F8011B07EB0C0229
:109874009A4207D9202203F8012BF7E73B46F2E787
:109884003B46F3E700221A70DB1B4370F0BD00BFB8
:10989400CDCCCCCCABAAAAAA834B040000CA9A3B79
:1098A400893BE65500E1F5056BCA5F6B809698002D
:1098B40083DE1B43C55A7C0AA08601005917B7D121
:1098C400D34D62101F85EB5140420F007047FEE7F5
:1098D400FEE7FEE7FEE770477047704708B502F001
:1098E40085FD08BD08B504F09DFB08BD0C4AD2F8FF
:1098F40044310C490B60D2F848110B4A11601A1D0F
:109904000A490A440A48026024330B4409490B609B
:10991400093309490B600023D3619361704700BF89
:1099240080370020A8140020B01400206C3F0020D1
:10993400A4140020B4140020AC14002008B5034B78
:10994400D3F85031024A1268984708BD8037002086
:10995400A814002008B5024BD3F85431984708BD29
:109964008037002038B5334B1B681A785AB9324A0D
:10997400126800FB02F0314C206001FB02F1304A16
:10998400116001221A702B4B1B681B78012B11D01C
:109994002B4B1B686BB92B4B1A68002393612A4A23
:1099A4001360264A1360294A03211170214A126860
:1099B400137038BD234B1B689B694BBB1E4C244D55
:1099C40022881E4B19682846FFF7C4FF40229821BD
:1099D400284603F0D9FF1B4B1A682368403B936168
:1099E400194B40221A604021012004F0CBF83021A9
:1099F400012004F006F8114A136840331360104A3A
:109A04001368403B1360134A9368403B9360BFE77D
:109A14000D4C2368402298210D48184403F0B4FFEC
:109A2400084B1A689369403B936123684033236071
:109A3400D9E700BFB4140020A81400203C0400207F
:109A440034040020A414002030040020DE50002040
:109A54006C3F0020E450002038B5304B1B68DC69B3
:109A640040342F4B1B681A785AB92E4A126800FBEF
:109A740002F02D4D286001FB02F12C4A11600122F5
:109A84001A70274B1B681B78012B12D0274B1B68BD
:109A94001BB1274B1B78042B0AD1204B1B680024D5
:109AA400DC610121204604F0CFF81D4B1B681C70BB
:109AB40038BD0022194B1868C369A3420AD21D4954
:109AC400885C1D495854154B1968CB690133CB6127
:109AD4000132EFE7194B1C88134B1A6822441A60B1
:109AE40012490B681B1B0B600E490968B3FBF1F4A8
:109AF40001FB14335BB1124A104B198893685B1A4B
:109B040093604FF44051022003F097FFBEE7C36116
:109B1400511A0948FFF712FFEDE700BFA414002013
:109B2400B4140020A81400204004002038040020AD
:109B3400DE500020F85000206C3F0020DC50002054
:109B4400E45000202DE9F84F002403E0E0B202F0D5
:109B540089FB0134192CF9D9A14CD4F858310025CA
:109B64001D70D4F85C311D700F2002F04DFF9D4B29
:109B740093F87E10082003F02DF8236D0B209847EE
:109B8400D4F8AC311D80D4F8B43128469847092064
:109B940002F0FEFE092002F019FF4FF47A7003F080
:109BA400A9F8092655E04FF4FA706DE08E4B33F8AE
:109BB4001620144423F8164006F10A0233F8121052
:109BC400084423F81200013D092D2ED9ECB2214698
:109BD400384602F03BFF2146384602F04FFF804BE7
:109BE400D3F808214FF0010882F80080D3F8083137
:109BF40000241C70322003F07DF83221204602F04C
:109C04009BFE2C1A3221404602F096FE281A84EA62
:109C1400E473A3EBE473994680EAE072A2EBE0728A
:109C24009046002BC2D1002AC0D1B9F1020F02D94B
:109C34006D4B23F816B0B8F1020F04D906F10A03EC
:109C4400694A22F813A0694A00210B2000F076FB30
:109C5400013E002E1CDB1421092002F0F7FE142122
:109C6400092002F00BFFF7B2384602F091FE3846A5
:109C740002F0ACFE5C4B33F816B006F10A0233F87E
:109C840012A0042E8FD0C82003F034F814259BE7CB
:109C9400BE21092002F0DAFEBE21092002F0EEFE08
:109CA400092002F075FE092002F090FE4FF47A704C
:109CB40003F020F84E4BB3F800A05F88002669E05B
:109CC4004FF4FA7003F016F83221002002F034FE4B
:109CD40005463221012002F02FFEA9448044013CB4
:109CE400052C1BD9E5B2284602F052FE284602F0A4
:109CF4006DFEBE21284602F0A9FEBE21284602F0D0
:109D0400BDFE374BD3F8082101211170D3F8083177
:109D140000221A70092CD3D06420D3E734490A886E
:109D24004FF43E7303FB02F292FBF9F9A1F80090A1
:109D34004A8803FB02F393FBF8F8A1F80280BE21E2
:109D4400062002F083FEBE21062002F097FE244B7B
:109D5400D3F8082101251570D3F8083100241C70AC
:109D6400642002F0C7FF3221204602F0E5FDA0F195
:109D7400BE043221284602F0DFFDA0F1BE02002C11
:109D8400B8BF6442A146002AB8BF5242904604B903
:109D940062B10136032E09D8144A00210B2000F0C9
:109DA400CDFA09244FF00008C14699E7B9F1020F32
:109DB40002D90F4BA3F800A0B8F1020F01D90C4B44
:109DC4005F80002207E0074B03EB0213D97B41F0CD
:109DD4000801D9730132192AF5D9BDE8F88F00BFFB
:109DE40080370020B4000020100000204CE9000857
:109DF400E4020020F0B5184B1988184B1B88C91AC7
:109E040011F10F0320D41B11154A158803FB05F328
:109E14009BB2144F3A8803EB12139BB202F00F0665
:109E24007600032404FA06FCDFF83CE05EF82340E5
:109E340024EA0C04B04004434EF82340013292B2A9
:109E44003A80914202D0F0BD0F33DCE700223A8021
:109E54000135034B1D80F6E7D43100207C37002008
:109E6400D0310020D2310020601A00202DE9F843BF
:109E7400074690460B4621B100F003061BB1BF080C
:109E840041E08608FAE707F003073CE0264A138816
:109E940001331380254A13880C3B13804FF00009CB
:109EA4001DE0002529E0B9F1040F2AD0002403E0C5
:109EB400F0B2FFF79FFF01340B2C06D805FA04F328
:109EC40013F4006FF4D0F8B2F3E7174A13880133A0
:109ED4001380164A13880C3B138009F10109B9F168
:109EE400070F0ED898F80030212BDAD9A3F12202FB
:109EF40009EBC2020E4931F81250212BD3D00024B1
:109F0400DAE708F1010898F800305BB1064A1388D3
:109F1400013B138000240B2CB8D83046FFF76AFFAE
:109F24000134F8E7BDE8F883D0310020D2310020B5
:109F3400BCE900082DE9F04F83B004463E4B1B8872
:109F44003E4A12889B1A9BB2009303F1FF3A1FFA10
:109F54008AFA3B4B1B883B4A12889B1A9BB201939B
:109F64005D1EADB2012706E0A008FFF743FF0136EE
:109F7400B542F9D80137D346BA4505D9324B1F80CB
:109F84000126324B1E80F3E7022612E01FFA86F9FF
:109F9400DFF8B480A8F800902C4F00233B802046C3
:109FA400FFF728FFA8F800903D802046FFF722FF26
:109FB4000136B345EAD8244B00221A800227234BEA
:109FC4001F8003E02046FFF715FF01372E46BD42F0
:109FD400F8D81D4BA3F800A002251C4B1D8003E0FC
:109FE4002046FFF707FF0135AE42F9D8DFF8588065
:109FF4000125A8F80050154F3D802046FFF7FAFED2
:10A00400009B9E1EB6B2A8F800603D802046FFF774
:10A01400F1FEA8F80050019B9D1EADB23D80204684
:10A02400FFF7E8FEA8F800603D802046FFF7E2FE57
:10A0340003B0BDE8F08F00BF5E1A00205C1A002058
:10A04400D43100207C370020D0310020D2310020D0
:10A0540010B50D4C20800D4802800D4A11800D4A28
:10A064001380002340F2DB52934205D80A4A0021B0
:10A0740042F823100133F5E70320FFF75BFF074B9A
:10A0840000221A7010BD00BF5C1A00205E1A002066
:10A094007C370020D4310020601A0020000000200A
:10A0A40070B582B0B8234FF490722821C820FFF70E
:10A0B400CFFF00241BE06C4D05EB0415A98968460D
:10A0C400FFF7C2F8694B19880DF10202A14214BFCF
:10A0D40000210121A87BFFF7C9FE052C00F0848034
:10A0E400042C00F08A80062C00F090800134062CA9
:10A0F40000F29C805C4A230102EB0415A8885C49A9
:10A104000880E8885B49088058490988D258A142E8
:10A1140014BF00210121A87BFFF7A8FEEB7B13F0FD
:10A12400400FC8D113F0200F2DD113F0010FD4D05C
:10A134004D4B03EB04139989002940D06846FFF77F
:10A1440083F84A4E3188484D05EB04150DF103029E
:10A15400A14214BF00210121A87BFFF787FE3188AB
:10A16400454AA14214BF00210121A87BFFF77EFECE
:10A17400AB89C3EB03139A0092B2404B1A80404B55
:10A1840001221A70A9E7384D05EB0415A989684620
:10A19400FFF70EF8354E31880DF10102A14214BFCC
:10A1A40000210121A87BFFF761FE3188354AA142D5
:10A1B40014BF00210121A87BFFF758FE8DE72B4B2C
:10A1C4001988294B03EB04132F4AA14214BF002121
:10A1D4000121987BFFF74AFE284B4EF660221A8035
:10A1E400274B00221A7078E7284BD3F8B8201E4B6F
:10A1F40003EB04139B89138072E7244BD3F890205C
:10A20400194B03EB04139B8913806CE7164B03EB88
:10A2140004139B8933B1C3EB03139A0092B2174B17
:10A224001A8063E7164B00221A705FE70E4CB4F8ED
:10A2340074300F4E3380B4F876300E4D2B80226F7D
:10A24400002194F87E00FFF711FEB4F884303380C7
:10A25400B4F886302B80D4F88020002194F88E0046
:10A26400FFF704FE02B070BD540200204A0400202F
:10A27400D0310020D231002054E90008F802002037
:10A28400FA02002050E9000858E90008803700204D
:10A2940008B501F10B039BB2024AB2F8CC2002F0DC
:10A2A40041FA08BD803700202DE9F84391460B465A
:10A2B40009B9014600E008211E4A32F8118003B9A9
:10A2C40008201C4B33F81060002403E0304602F0F1
:10A2D4004FFA01340B2CF9D924E00025212B02D0AC
:10A2E4004FF4006408E0042F1AD04FF4006403E034
:10A2F400304602F03DFA64081CB12542F8D04046CD
:10A30400F7E70137072F0BD899F80030212BE4D950
:10A31400A3F1220207EBC202074931F81250DDE72C
:10A3240009F1010999F800300BB10027EAE7BDE80B
:10A33400F88300BF94EF0008BCE900082DE9F84356
:10A3440091460B4609B9014600E008211A4A32F841
:10A35400118003B90820184B33F8107024E000254D
:10A36400212B02D04FF4006408E0042E1AD04FF4DD
:10A37400006403E0384602F0FBF964081CB12C4287
:10A38400F8D04046F7E70136072E0BD899F800308D
:10A39400212BE4D9A3F1220206EBC202074931F8CA
:10A3A4001250DDE709F1010999F800300BB10026DC
:10A3B400EAE7BDE8F88300BF94EF0008BCE90008B1
:10A3C400F8B5174601F10A0300F10A029BB292B2F2
:10A3D40002F0A8F9002610E00A210E4B33F8110010
:10A3E40002F0C6F901340A2C06D845FA04F313F036
:10A3F400010FF1D00821F0E701360A2E09D807EB46
:10A40400870307EB43033344034A32F81350002411
:10A41400E9E7F8BD94EF000864E90008F0B5ADF28F
:10A42400044DD7230A220D21002002F07BF90025D8
:10A4340054E080AC59E0002208E0334B93F8DE305E
:10A44400934217D1314B1B78A3B90132032A3AD86E
:10A454002F4B33F812002F4B33F812C0C2EBC20358
:10A464002D4919442D4B9B5C002BEED12C4B1B88A2
:10A474000D2BE2D00338062D17D84F5D87F47F47A4
:10A4840087F0FF07002300E00133082BDDD847FAEB
:10A4940003F111F0010FF7D003EB000E34F81E1096
:10A4A4004CEA010124F81E10EEE7B31FC6F10F01B8
:10A4B4009942CAD91F1834F817104CEA010124F83C
:10A4C40017100133F2E7174ED6F8F8309847D6F84C
:10A4D4000031CB21204698470135ADB20A2D0CD866
:10A4E4002E4615F0010FA4D06C460023652BA2D88C
:10A4F400002244F823200133F8E70A4BD3F8F8305C
:10A5040098470DF2044DF0BDB4000020663F0020D2
:10A51400F002002094EF0008B4EF00084404002087
:10A52400B00000208037002070B5FFF777FF0D21C1
:10A534004FF4BA7002F02CF90D24D72C05D8002062
:10A5440002F016F90134E4B2F7E70B24B4F5BA7F4C
:10A5540010D80D21204602F01BF9002002F008F962
:10A56400D721204602F014F9002002F001F9013449
:10A57400A4B2EBE75B4B93F8EE105B4A32F8115050
:10A5840093F8EC600C36F6B231460A2002F000F97A
:10A59400002404E0284602F0EBF80134E4B2042C71
:10A5A400F8D931464FF4BA7002F0F2F8002404E00E
:10A5B400284602F0DDF80134E4B2042CF8D9494B02
:10A5C40093F8FE10484A32F8115093F8FC600C36A8
:10A5D400F6B231460A2002F0DBF8002404E02846F3
:10A5E40002F0C6F80134E4B2042CF8D931464FF431
:10A5F400BA7002F0CDF8002404E0284602F0B8F85E
:10A604000134E4B2042CF8D9364A92F87E10364B61
:10A6140033F81160B2F80C31B2F86C209B1AC3EB1A
:10A6240003135D00ABB22DB25A1E92B2B2F5B37FE2
:10A6340016D809339CB20FE00D21204602F0A8F889
:10A64400304602F095F8D721204602F0A1F83046B2
:10A6540002F08EF80134A4B205F10D03A342EBDA43
:10A66400204B93F81E11204A32F81150B3F81C61A4
:10A6740006F10904A4B20FE00D21204602F088F887
:10A68400284602F075F8D721204602F081F82846C2
:10A6940002F06EF80134A4B206F10D03A342EBDA22
:10A6A400104B93F82E11104A32F81150B3F82C6164
:10A6B40006F10904A4B20FE00D21204602F068F867
:10A6C400284602F055F8D721204602F061F82846C2
:10A6D40002F04EF80134A4B206F10D03A342EBDA02
:10A6E40070BD00BFB400002094EF00082DE9F04FC6
:10A6F400ADF5637D984BB3F80C21B3F86C10521A86
:10A70400C2EB02124FEA42091FFA89F9B3F81C712D
:10A71400B3F82C210092B3F8ECB0B3F8FC2001920A
:10A7240093F87E208D4931F812808D4931F81260FA
:10A7340093F80F2102F00102029293F81F2102F014
:10A744000102039293F82F2102F00102049293F87C
:10A75400EF2002F00102059293F8FF2002F00102BB
:10A76400069293F87F3003F0010307937D4A138820
:10A7740001331380D62340F273120E210B2001F013
:10A78400D1FF00257EE179AC84E147F6EF3289E11F
:10A7940047F6EF3286E147F6EF33A4F89031238091
:10A7A400714AA2FB053222F00F03A3EB12135A00E5
:10A7B400954219D06D4BA3FB05239B0803EB430380
:10A7C4005A0095421AD0002D00F0D680B5F5B47F1A
:10A7D40000F0D28000233BE047F6EF3224F8132048
:10A7E4000533C72BF8D9E5E70523FAE747F6EF3237
:10A7F40024F813201933C72BF8D9E4E71923FAE70F
:10A8040001F13800C0B236283ED8C72208A941F861
:10A8140023200CAA52F8231008AA52F823209142AC
:10A8240040D04F4A32F813C008AA52F823100CAA99
:10A8340052F823000A1A052A05D92CF4844C2CF06A
:10A84400080C1FFA8CFC4A4AD25C002A62D00133FD
:10A85400032B61D803EB8501464A525CFF2AF6D0EC
:10A8640008A840F823200CA840F82320501EC0B2AA
:10A87400C62824D804393F48415C0029C0D10CAA19
:10A88400012142F82310C4E78A4203D90CAA42F8F2
:10A894002310BEE78A42BCD2FF29BAD008AA42F8E4
:10A8A4002310B6E7012903D901390CA840F8231075
:10A8B400C62AB6D8013208A941F82320B1E76AB9FB
:10A8C400081FDFF8B0C01CF8000038B10DF1300CDF
:10A8D4004CF823000DF1200C4CF82300C72AA0D912
:10A8E4000439244A525CC72A9BD80CA941F8232076
:10A8F40008A941F8232094E701329142A7D3002804
:10A90400FAD0C729F8D834F812E04CEA0E0E24F82D
:10A9140012E0F1E70246F0E7144BA3FB052323F012
:10A92400010202EB53039D424FD1059B1BB14FF62D
:10A93400FF7324F81B30069B23B14FF6FF73019A73
:10A9440024F81230079B002B3FD034F818303343DF
:10A9540024F8183039E000BFB4000020E8020020D9
:10A9640094EF00086A3F002089888888ABAAAAAAC5
:10A9740044040020D83100204FF6FF7224F81B2035
:10A984006FF000430BEB030124F811200BF10101DC
:10A9940024F81120019824F81020C11824F811205B
:10A9A400411C24F8112034F81820324324F81820CC
:10A9B400434434F81320324324F8132008F10102ED
:10A9C40034F81230334324F81230012D72D040F29F
:10A9D40067139D426ED0AF4279D0009BAB4200F02A
:10A9E4008380AF4202D0009BAB4207D14FF6FF7386
:10A9F400A4F89031A4F88E31238063807B1E29460D
:10AA0400AB4209D07B1C9D4206D0009A531E9D4246
:10AA140002D0531C9D4204D14FF6FF73A4F8903129
:10AA24002380A9456ED009F1FF33994203D009F17F
:10AA34000103994202D1A4F890612680524B1A88EE
:10AA4400A5EB020C514B1888514B1B881B1A6DD473
:10AA54001B1103FB0CF34F4901EB830C4E4B1B788A
:10AA64002BB9AA4203D84D4B1B88AB4260D8DFF800
:10AA740034A1DAF8F8309847DAF80031C9212046D1
:10AA840098470135B5F5B47F76D815F0010F3FF43A
:10AA94007AAE10AC002D3FF47BAEB5F5B47F3FF435
:10AAA40074AE00220023642B3FF675AE44F82320D5
:10AAB4000133F8E74FF6FF7324F81B30019A24F8AA
:10AAC400123034F81830334324F8183083E7039BEA
:10AAD400002B82D0012304E04FF6FF7224F81320E8
:10AAE4000333C82BF8D978E7049B002B3FF479AFE4
:10AAF400012304E04FF6FF7224F813200333C82B1C
:10AB0400F8D96EE7029B7BB9A4F89061A4F88E6132
:10AB14002680668087E734F81320324324F8132014
:10AB24000333C82BF7D9EFE70123FAE70F338FE795
:10AB3400AE4619E002321F2A13D8C2F34F0381B282
:10AB44000B449BB2591E89B2C629F3D8DCF8001015
:10AB5400D14001F00301124D35F8111024F81310FF
:10AB6400E8E70CF1040C1030094B1B88834201D92F
:10AB74000022E0E775467AE70A4BD3F8F8309847A5
:10AB84000DF5637DBDE8F08F5C1A00207C37002052
:10AB9400D4310020601A0020000000205E1A00203A
:10ABA4008CEF00088037002070B5304CB4F8743056
:10ABB4002F4E3380B4F876302E4D2B80226F0B321B
:10ABC400002194F87E00FFF751F9B4F88430338003
:10ABD400B4F886302B80284B1B88032B24D8002004
:10ABE400254B1B881BB3244B1B88012B26D0224BDF
:10ABF4001B88022B29D0204B1B88032B2CD090BB05
:10AC04000B221A4BD3F880100A44002193F88E00CB
:10AC1400FFF72CF9FFF76AFD4FF47A7002F06AF837
:10AC2400164B01221A7070BDFDF7F8FCD8E70F4AE5
:10AC340002EB0313187BFDF7D3FFD4E70B4A02EBB7
:10AC44000313187BFEF72CF8D1E7084A02EB031331
:10AC5400187BFEF75DF8CEE7044A02EB0313187B7A
:10AC6400FEF71AF9CBE71622CBE700BF5402002007
:10AC7400D0310020D23100204A0400204C040020AE
:10AC8400F8B5D7216D20FFF703FB002714E000205F
:10AC940001F06EFD01340B2C07D82B78234113F0FF
:10ACA400010FF4D040F21F50F2E701350136072EB0
:10ACB40001D80024EFE70137172F02D80026494DA9
:10ACC400F5E7002404E040F21F5001F051FD013487
:10ACD400172CF8D9D7216D20FFF7DAFA002404E005
:10ACE40040F21F5001F044FD0134172CF8D93E4BBB
:10ACF400B3F86C304FF4B45404FB03F4C4F30F34CE
:10AD040004F16F06B6B2D821304601F041FD0025AA
:10AD140004E04FF6FF7001F02BFD0135082DF8D942
:10AD24007F34A5B2D8232A461946304601F0FAFCEE
:10AD3400002404E04FF6FF7001F01AFD0134102CDA
:10AD4400F8D9E1232A461946304601F0EBFC0024E9
:10AD540004E04FF6FF7001F00BFD0134102CF8D91C
:10AD6400D821284601F014FD002404E04FF6FF70BA
:10AD740001F0FEFC0134082CF8D91B4BB3F80C315C
:10AD84004FF4B45606FB03F6C6F30F3606F16E070E
:10AD9400BFB206F1710206F16C00E22392B2E12126
:10ADA40080B201F0BFFC104B93F87E200F4B33F8B8
:10ADB4001250002403E0284601F0DAFC01340B2C85
:10ADC400F9D906F16F02E02392B2D721384601F097
:10ADD400A9FC002403E0284601F0CAFC0134132C2A
:10ADE400F9D9F8BD5CE90008B400002094EF00082C
:10ADF4002DE9F04391B0BC48BC4B98474FF4004157
:10AE04004FF0006003F022FCB94B1B68B94AA2FB67
:10AE140003239B09013BB3F1807FF5D2B64A53600B
:10AE2400B64BF02183F823100025956007231360A7
:10AE3400B34B00932B464FF6FF725A21602001F06A
:10AE440079FCB04B00932B464FF6FF725A21E82051
:10AE540001F070FCA44C236D06209847236D042058
:10AE6400984702F045FCFEF741FDFDF7D9F9636F01
:10AE740001261E70236D09209847236D0A209847E8
:10AE8400236D0B209847236D0C209847802128467A
:10AE940001F00CFD8021304601F008FD01F0C4FEF4
:10AEA40001F088FCE46806229749204603F0A2FCDE
:10AEB40078B106229549204603F09CFC002848D02E
:10AEC40007229349204603F095FC002843D1914B77
:10AED40000E0914B914A136009AC914D0FCD0FC422
:10AEE40095E8070003C424F8022B120C227002AC6C
:10AEF4008C4D0FCD0FC495E8070003C424F8022B32
:10AF0400120C2270FDF7E2FC38B309AC0094002364
:10AF14004FF4FC621E21602001F00CFC724AD2F84E
:10AF2400B810814BB3F85C000880D2F89020B3F8D5
:10AF34004C30138009AB9C4211D04FF4FA6001F0FD
:10AF4400D9FE01F071FE01F035FC784B00221A8025
:10AF54007DE2774BBEE7704BBCE702ACD6E732210B
:10AF64006020FFF795F9734A00210B20FFF7E6F9FB
:10AF7400FEF7E8FDE5E7FFF793F86F4B00221A7040
:10AF84006EE2032282E2FDF765FD81466B4BB3F866
:10AF94004611B3F84401FFF77BF9B9F1000F10D162
:10AFA400674A00210B20FFF7C9F94FF4FA6001F05A
:10AFB400A1FE624A92F84F3143F0080382F84F3100
:10AFC40084E2604A00210920FFF7B8F9EDE7FDF7B4
:10AFD40025FB8146594BB3F84611B3F84401FFF7FA
:10AFE40057F9B9F1000F10D1574A00210B20FFF790
:10AFF400A5F94FF4FA6001F07DFE504A92F84F3102
:10B0040043F0080382F84F3172E2504A00210920CC
:10B01400FFF794F9EDE7FFF743F869E27821602040
:10B02400FFF736F9434A00210B20FFF787F9FEF7B3
:10B0340089FD7821B820FFF72BF9454A00210B2020
:10B04400FFF77CF94FF4FA6001F054FE62E2414BE1
:10B054001B78002B00F09C803F4B1B88DA1F92B2B8
:10B06400012A1AD90D2B79D0152B77D0142B75D032
:10B07400A3F1160292B2012A7DD9132B7BD0A3F13E
:10B084000E0292B2042A00F245822C4A02EB031308
:10B09400DA7B82F00102DA733CE2284A02EB031302
:10B0A400D97B41F00801D973997B013101F0030187
:10B0B400997382F87E1092F87F1041F0080182F8AB
:10B0C4007F10997B82F88E1092F88F1041F008015E
:10B0D40082F88F109B7B82F80E3192F80F3143F087
:10B0E400080382F80F3115E28037002001010008BF
:10B0F40010040020D34D621010E000E000ED00E0E9
:10B10400D0EF000804000020E4EF0008ECEF000892
:10B11400F4EF000888000020380000203C390020AB
:10B1240058F0000874F00008540200205A0400206B
:10B1340060000020FCEF00084C040020B400002054
:10B1440008F0000818F0000828F0000838F000089B
:10B1540048F0000800000020B0000020AC4A02EBD8
:10B1640003139A7B013202F003029A73DA7B42F0F2
:10B174000802DA73CEE1A64A02EB03139A7B01328A
:10B1840002F001029A73DA7B42F00802DA73C1E139
:10B19400FFF70AFDBEE10121C7E19E4B03EB460820
:10B1A400A2F116039BB2012B09D9012E19D9072A42
:10B1B4001ED0002716E0984B03EB4608F0E7B8F8DA
:10B1C4000030032BF1D1924B93F81F0120F00100C2
:10B1D40083F81F0193F82F0120F0010083F82F0159
:10B1E400E3E70027032A07D90A2A03D0002304E04F
:10B1F4000127F7E7012300E001231E468448B0F845
:10B204008C0110B913B1012300E000234FB943B9F5
:10B2140015F4005F76D0B8F8000000F0FFFBA8F842
:10B2240000007B4BB3F89C30012B72D0784BB3F801
:10B23400BC30022B0ED8764BB3F8CC300A2B09D98C
:10B24400734B0A22A3F8CC2093F8CF2042F00802D3
:10B2540083F8CF206E4BB3F89C30032B5ED0012BC8
:10B2640076D900F0B5F915F4804F14D06B4B1A88D9
:10B27400674B03EB0213D97B41F00401D973684B8C
:10B284001B78002B00F08B80162A00F28680013296
:10B2940092B2624B1A8014F4004F40F08E80142056
:10B2A40001F018FD5F4BB3F86C302BB1C3EB031303
:10B2B4009B009BB25C4A13805C4BDA6F1378DBB261
:10B2C400012B00F09B80584B1B889BB2002B40F055
:10B2D400B980574B1B78002B00F0B4801378002BF7
:10B2E40040F0B080514CD4F88C3001209847D4F809
:10B2F400B83000221A80D4F80821012313704D4A73
:10B304001370A4E0B8F8000000F0A2FBA8F8000055
:10B3140087E7002E8AD001F04DFA87E73C4AB2F85D
:10B32400AC20052A03D93A4A0521A2F8AC10384AC0
:10B3340092F8AF1041F0080182F8AF100021A2F892
:10B344006C1092F86F1041F0080182F86F1086E7D4
:10B354002F4BB3F88C31002B83D1374B1B78002B48
:10B364007FF47FAF2A4B0022A3F86C2093F86F2060
:10B3740042F0080283F86F2073E7304B01221A7001
:10B3840015F4005F04D02E4B188800F00BFB6AE71D
:10B394002B4B188800F024FB65E7002279E7284B43
:10B3A4001B88062B07D001339BB2254A1380234BFD
:10B3B40001221A706FE70023F7E7184B1A88144B21
:10B3C40003EB0213D97B41F00401D973144B1B78AE
:10B3D4003BB122B1013A92B2104B1A805FE71722B7
:10B3E400FAE7174B1B883BB1013B9BB2144A13800D
:10B3F400124B01221A7052E70623F7E7094BB3F800
:10B404006C30C3EB03139B009BB207490B805AE7D4
:10B41400B4000020E8020020F0020020B000002068
:10B424000000002054020020F80200208037002091
:10B43400FA02002048040020510400204C0400209B
:10B444004A040020574B1B78012B00F08D8000F03C
:10B4540009F900F059FE544B1B78002B7FF48BAD97
:10B46400524B1D8825F4786424F00F04A4B2002202
:10B474001A80002C3FF420AF4D4B1B884D4A02EB41
:10B484000312967B002E7FF47CAD0122494901EB27
:10B49400021297891B0108330B4403F1040815F0C9
:10B4A400100F13D0444B1B8813F0080F3FF46BADFF
:10B4B400404AB2F88C31B3FA83F35B09A2F88C31B9
:10B4C40092F88F3143F0080382F88F3115F0200F82
:10B4D4000ED0394B1B8813F0080F3FF478AD374A70
:10B4E4001378B3FA83F35B091370002B3FF493AD25
:10B4F40015F0400F0ED0304B1B8813F0080F7FF46B
:10B50400A6AD2F4B5B6A002B7FF488AD2C4B1B6FD1
:10B5140000221A7015F4405F3FF4A5AE264B1B8839
:10B5240013F0080F7FF437AE0A21244B1B78002B4D
:10B534003FF423AF1E4B1A881E4B03EB0213D87B38
:10B5440040F00800D873072A3FF427AE0D2A3FF4D1
:10B5540032AE132A7FF424AE06EB860807EB4807C5
:10B56400184B03EB47081BE6154CD4F88C3000202D
:10B574009847D4F8B820144BB3F85C101180D4F871
:10B58400081100220A70A16F4FF47A7008800549EF
:10B594000A70B3F86C30C3EB03139B009BB20B4AE5
:10B5A400138054E7480400204C0400205A0400206F
:10B5B400B0000020B40000207C50002000000020D7
:10B5C400803700201000002054020020F8020020E0
:10B5D400214B9B89033B9BB2012B20D91E4B1A693B
:10B5E4001E4B9A4206D01C4B1C4A1A61DA7F42F069
:10B5F4000802DA77184B9B8D033B9BB2012B1BD9B6
:10B60400154B1A6B154B9A4208D0134B134A1A6305
:10B6140093F83F2042F0080283F83F2070470E4B16
:10B624001A690F4B9A42E5D00B4B0D4A1A61DA7F27
:10B6340042F00802DA77DDE7074B1A6B084B9A42AF
:10B64400ECD0054B064A1A6393F83F2042F00802F7
:10B6540083F83F20704700BFB4000020DCF50008E9
:10B664002CF600082DE9F04784B0002456E0BD4ACA
:10B674001178BD4A127891425CD083EA020545F004
:10B684000405BA4B93F87F1141F0080183F87F1148
:10B6940093F85F1141F0080183F85F1193F86F117B
:10B6A40041F0080183F86F1193F84F1141F008013C
:10B6B40083F84F11AB4B1A703CE0E0B200F0D2FDBE
:10B6C400072C03D0102C01D0062C39D1FFF7D8FA5F
:10B6D40036E0002B50D1A54A02EB041292F80E80FA
:10B6E400002B4CD140462A0902F0080223019F494D
:10B6F400CB5802FB063205F00105102841D05FFA51
:10B7040080F9EDB229464846FEF7CEFDA4F11603B2
:10B71400012B3BD9012F40F28E800134192C00F209
:10B724001E81924B03EB0413DB7B1D46904A128867
:10B73400A2429CD015F00C0FEFD015F0080FBCD12D
:10B74400FEF7F2FE894E06EB0416F37B23F00C039E
:10B75400F373F188B088FEF79BFDB689A4F1140752
:10B76400032F8CBF00230123052EB2D0072EB0D0A7
:10B77400062EAED00023AEE74FF00008B0E70A2053
:10B78400B1E70EB10320BAE70920B8E708F00103D6
:10B794007849122202FB0312B2F910203AB9042E9E
:10B7A40005D8754A29464846FEF7C8FDB5E7002B7B
:10B7B4003FD003216D4A02EB011291896F4A52F87E
:10B7C4002110072E01D14FF47A71DA001A44324461
:10B7D400684830F9122001FB02F153B9072E08D052
:10B7E400624A9289033A92B2012A02D80A2202FBDF
:10B7F40001F153B1072E08D05C4B9B8D033B9BB2E8
:10B80400012B02D80A2303FB01F101A8FDF7A4FDD3
:10B814000DF1060229464846FEF790FD9DF80420E6
:10B8240002EB8202564B1A4429464846FEF786FD2F
:10B8340073E70121BEE7C8EBC80808EB0603514AC9
:10B8440032F8131029B94C4A29464846FEF776FDCA
:10B8540063E7464BB3F8AC804B4B13F8087007FB17
:10B8640001F7062E79D8DFE806F00404043A6304ED
:10B874006E00464B13F80860711FC9B20A20FDF729
:10B8840089FC07FB00F30F331E21B3FBF1F34FF4E4
:10B894007A7101FB03F1B8F1090F0AD9B11EC9B2DB
:10B8A4000A20FDF777FC07FB00F10F311E23B1FBE3
:10B8B400F3F1032201A8FDF7C9FE9DF8046006EB2D
:10B8C4008603334E1E440DF1060229464846FEF710
:10B8D40035FD324629464846FEF730FD1DE72D4B1F
:10B8E40013F808A00AF10201C9B20A20FDF752FCBC
:10B8F4007E081E2303FB0061B1FBF7F1B8F1090FC9
:10B904000BD951460A20FDF745FC1E2101FB0061BD
:10B91400B1FBF7F7642101FB07F1032201A8FDF74E
:10B9240095FE9DF8046006EB86031B4E1E44CAE791
:10B93400032201A8FDF78AFE9DF8046006EB860346
:10B94400164E1E44BFE703224FF47A7303FB01F142
:10B9540001A8FDF77BFE124EB5E70026B3E704B05D
:10B96400BDE8F08749040020663F0020B4000020B1
:10B97400B00000201C3F002094F0000898F6000856
:10B984007CF60008E43E002080F3000898F30008E9
:10B9940060F50008B0F30008C4F20008F0F10008F4
:10B9A40090F0000810B40D4B03EB00139A8954185F
:10B9B4005B89A34205DB094B03EB0010848110BCB7
:10B9C4007047064B03EB0013DB7B13F0100FF6D02C
:10B9D400024B03EB001003898381F0E7540200203B
:10B9E40010B40D4B03EB00139A89541A1B89A3421C
:10B9F40005DC094B03EB0010848110BC7047064B37
:10BA040003EB0013DB7B13F0100FF6D0024B03EBB8
:10BA1400001043898381F0E75402002010B44418D5
:10BA24000A4B03EB02135B89A3420BDA074B03EBCC
:10BA34000213DB7B13F0100F06D0044B03EB02124E
:10BA4400108901E0084480B210BC7047B4000020A3
:10BA540010B4441A0A4B03EB02131B89A3420BDDF7
:10BA6400074B03EB0213DB7B13F0100F06D0044BE0
:10BA740003EB0212508901E0401A80B210BC7047F7
:10BA8400B400002030B44E4B00201880FF225A80AE
:10BA940058829A824B4A918801F114049C84D98477
:10BAA400D28802F11401D9861A8702460446464B0D
:10BAB40003E059780C4404330132B2F5B47F22D246
:10BAC4003F49B1F9005019788D4201DA3C4D298083
:10BAD4003B49B1F9025019788D4201DD384D698036
:10BAE400197808443649B1F9125059788D4201DA6F
:10BAF400334D69823249B1F9145059788D42D8DDF9
:10BB04002F4DA982D5E72E49B1F90020B1F90230B1
:10BB1400C72ACCBF00250125002BD8BF00250D82E4
:10BB240045B192B227490D88521B25490A809BB220
:10BB34005B1B4B80224B1A885988521A9A80C20880
:10BB44002249A1FB02121F490888C0EB92021A8104
:10BB5400B3F91210B3F91420C729CCBF002501256D
:10BB6400002AD8BF00255D8445B18BB215494D88A4
:10BB74005B1B13494B8293B25B1B8B82104A538A23
:10BB8400918A5B1AD382E3081049A1FB03130D4980
:10BB94004988C1EB930353830D4C2388181A908171
:10BBA40063885B1AD3830B49B1F8EC30B1F8FC100D
:10BBB4005B1A5381084B1B88DB08D38130BC704768
:10BBC4001C3F0020F0020020D8310020176CC11661
:10BBD400E8020020B4000020FC0200202DE9F0411E
:10BBE4000646214B00EBC00203EB420133F912C0BD
:10BBF400B1F902309C440CEBDC7C4FEA6C0C1B4D1D
:10BC0400054400229046104696461746144604E022
:10BC1400BEFBF8F0043501320C46B2F5B47F19D2FC
:10BC24002B78134931F816105B1A9C45ACBF0021E0
:10BC34000121002AEED01FB103FB03EE08F1010835
:10BC44008C42E7D001EB4404A742E1D0002FE1D1BC
:10BC54002746DFE7FDF76CFB06EBC606024B03EB5A
:10BC64004606F080BDE8F0811C3F0020D83100205A
:10BC7400F00200202DE9F04F83B08246424B00EBE6
:10BC8400C00203EB420133F91260B1F902301E44E1
:10BC940006EBD6763D4B33F8103003EB66063C4991
:10BCA40001440023994601939B4698469E469C4630
:10BCB40018461D461A460EE0E04425E009F1010944
:10BCC400CDF80480F3464FF0000C01E0844628468A
:10BCD400043101331546B3F5B47F1AD20C78771DBD
:10BCE400BC4200D90122771FBC4200D20022002BA3
:10BCF400EED00CF1010CAA42EAD002EB4505002873
:10BD0400E4D0002AD8D1E644A842D7D04FF0000CA2
:10BD1400DEE709F1FF331C2B33D8642303FB0BF15B
:10BD2400B1FBF9F51B4ACAEBCA0402EB440022F842
:10BD34001450019D2C4603FB04F4B4FBF9F4448035
:10BD4400AB4403FB0BF3B3FBF9F39BB28380C380D7
:10BD5400B1FBFBFBA0F808B00F49B1F82C31B1F8E6
:10BD64001C115B1A002BB8BF5B4203EB830303EB8C
:10BD740083039B005381094B1B88938103B0BDE867
:10BD8400F08F0023CAE700BF1C3F0020F002002010
:10BD9400D8310020E43E0020B4000020AE4F002043
:10BDA40008B5FFF76FFE164BB3F87C31032B0FD0A9
:10BDB400134BB3F86C31032B10D0114BB3F85C3137
:10BDC400052B11D10E4BB3F84C31052B12D108BD04
:10BDD4000B4B93F87E01FFF701FFE9E7084B93F85B
:10BDE4006E01FFF7FBFEE8E7054B93F85E01FFF7F2
:10BDF40041FFE7E7024B93F84E01FFF73BFFE6E70D
:10BE0400B400002010B4134B1C88844219D8041BBE
:10BE140000230AE00F4A12881A44521A0E4951F8B4
:10BE240022100E4A42F823100133B3F5B47F08DA26
:10BE3400C4F5B4719942EDDD1A19084951F822107C
:10BE4400EFE7B0F5B47F00D30020024B188010BC9C
:10BE5400704700BF52040020B8140020D8310020DD
:10BE6400C72803DC20EAE07080B27047C82070471E
:10BE7400094BB3F89C30032B07D043B9064BB3F8F6
:10BE8400AC30022B05D900207047012070470020F8
:10BE940070470120704700BFB40000202DE9F04F27
:10BEA40095B0044602464521002000F0A3FC22463A
:10BEB4004521012000F09EFC874B1968874B9A8B23
:10BEC40031F8122008929A8F0A3231F8122009921E
:10BED400834A11880A910F9151880B91109191888E
:10BEE4000C91D2880D92B3F8AC107E4A32F811202E
:10BEF4000692B3F84C200E92B3F85C80A8F10202CB
:10BF0400794B02EB030908F29A529B5C1393FFF7F7
:10BF1400AFFF10B9754C002726E0754CFBE7B8B2AB
:10BF2400D2E006F00106B3001E44B60065E0059BAE
:10BF3400079A134418460C9B184400B2FFF790FF6D
:10BF4400002F40F08980029B2370039B6370A070D4
:10BF5400049BE3700434BA460137049B1293119096
:10BF6400039B0193DDF808B0002000F0BBFC0546FC
:10BF7400012000F0B7FC064645EA0003C3F3800144
:10BF84005C4A1170C3F380115B4A1170C3F3C001A2
:10BF94005A4A1170C3F34001594A1170C3F3001394
:10BFA400584A1370002BBAD10F9BC3EB1520089B82
:10BFB40000FB03F000F50070830A05930A9B03EB72
:10BFC400902000B2FFF74CFF0290109BC3EB1620A9
:10BFD400099B00FB03F000F50070830A07930B9B99
:10BFE40003EB902000B2FFF73BFF0390B8F1010F81
:10BFF40097D999F80060139BF61A0D9B981900B213
:10C00400FFF72EFF049005F00105A8000544AD00DC
:10C0140028460E9B023B052B8DD801A252F823F033
:10C0240033BF00083DC0000845C000084BC00008ED
:10C0340051C0000857C00008059B079A981A7AE770
:10C0440005EA060077E745EA060074E7059B5842CF
:10C0540071E7079B58426EE7029BA3EB0B0C039B13
:10C06400019A9E1A119BC51A0499129A891A07906B
:10C074000591184696461DE00AFB0CF20BEB922242
:10C084000AFB06F3019901EB9323227063700AFB08
:10C0940005F200EB9222059B0AFB03F30EEB9323BC
:10C0A400A270221DE370069B9A440137B7F5B47F52
:10C0B40009D01446BAF5806F09D8B8F1010FDBD95D
:10C0C40009F10409D8E7B8B215B0BDE8F08F0798B4
:10C0D400AAF5806A41E700BF3C390020B400002083
:10C0E400F0020020ECF0000840390020D831002094
:10C0F400B814002051040020500400204E040020F5
:10C104004F0400204D04002038B54721002000F0E2
:10C11400CDFB04464721012000F0C8FB2043C0F3B7
:10C124008001494B1970C0F38015484B1D70C0F352
:10C134004002474B1A70C0F3C002464B1A70C0F35A
:10C144000010454B1870454BB3F89C20B3F8AC4035
:10C15400B3F86C00424B33F8143000FB03F0C0EB2F
:10C164000010C0F35520032A52D8DFE802F0022B56
:10C174003C55022C16D8394BB3F88C31012B0AD01C
:10C184000024FEF7B3FAFFF70BFEB4F5B47F3FD1FA
:10C1940000F04AFD3CE00020FFF780FE0446FFF774
:10C1A40031FEEEE739B95DB12C4BB3F88C31012B7C
:10C1B40001D00024E5E780B2FFF770FE0446E0E713
:10C1C4000024DEE751B90024FEF790FAFFF7E8FDFA
:10C1D400B4F5B47F1CD100F027FD19E080B2FFF75D
:10C1E4005DFE0446F0E7A1B180B2FFF757FE194B9C
:10C1F4001B784BB1194B0022A3F88C2193F88F21A3
:10C2040042F0080283F88F21FEF770FAFFF7C8FDA9
:10C2140038BD00F0CFFAEAE7104BB3F88C31012BAC
:10C224000AD00024FEF762FAFFF7BAFDB4F5B47F32
:10C23400EED100F0F9FCEBE70020FFF72FFE0446F7
:10C24400FFF7E0FDEEE700BF51040020500400209A
:10C254004F0400204E0400204D040020B4000020B0
:10C26400ECF0000838B55C4B03EB00139B891828ED
:10C2740023D8DFE800F0173C30465056226FA62240
:10C28400A291915C2222687B7B5C222222220D00F7
:10C29400514BB3F88C31012B0FD100F0C5FC00F0E9
:10C2A40089FA0AE04D4AD2F8582103F001011170CD
:10C2B400B3FA83F35B094A4A1370FFF7D9FD0028E8
:10C2C40040F08780444B93F88C00434B93F87E10E6
:10C2D40000F080FC38BD414AD2F85C2103F0010132
:10C2E4001170B3FA83F35B093D4A5370E5E7DCB29E
:10C2F400204600F04DFB3B4B1978204600F0A6FB8E
:10C30400DBE7DCB2204600F061FB364B997820462F
:10C3140000F0B4FBD1E7B3FA83F35B09304A9370BE
:10C32400CBE7B3FA83F35B092D4AD370C5E72A4CF4
:10C334002C4D2978207F00F089FBA97894F83C00E3
:10C3440000F09CFBB9E7C3EB0310400080B200F09F
:10C35400ADFBB2E7244C22782121002000F07EFAC4
:10C36400A2782121012000F079FAA6E71A4AB2F84E
:10C374001C31B2F82C41A3420CD91C1BA4B2224696
:10C384002221002000F036FA22462221012000F06A
:10C3940031FA92E7E41AF1E70F4BB3F8BC30032B00
:10C3A40005D00D4BB3F8CC0000F0BEFB85E70A4B7B
:10C3B400B3F8CC0000F09AFB7FE7D8B200F024FB7E
:10C3C4007BE7054B93F87E1093F88C0000F002FC99
:10C3D40073E7082079E700BFB4000020803700200D
:10C3E40044040020F0020020E8020020A44B1B8833
:10C3F400A52B40F2F980A24B00221A80A14A13789F
:10C4040083F001031370A04B1B889BB22BB19E4A8F
:10C4140013889BB2013B9BB213809C4B1A88013258
:10C4240092B21A8012F0010F40F07681F0B498496C
:10C43400D1F8A8301878D1F8AC301B785B0343EA04
:10C4440000331BB2D1F8B000007843EA80331BB24A
:10C45400D1F8B410097843EAC13318B203F4704335
:10C464008C4DB5F9001020EA0104A6B221EA0001BE
:10C474008FB22B8011F4805F07D013F4005F00F0BB
:10C48400B7804FF4805584490D8017F4804F06D04F
:10C494000028C0F2B0804FF480407F49088016F431
:10C4A400005F07D013F4805F00F0A8804FF4805041
:10C4B40079490880002CC0F2A480784B1B889BB279
:10C4C400012B40F2A98075490B889BB2023B9BB2B9
:10C4D4000B80734BA3FB02131B0903EB830399002B
:10C4E400511A89B200297DD1B2F57A7F02D9674BFE
:10C4F40000221A80664AD2F898301B78D2F89C1031
:10C50400097843EA4103D2F8A010097843EA810389
:10C51400D2F8A420127843EAC203624A1380624824
:10C52400018821EA03055C4C228842EA051212B212
:10C5340023EA010142EA0122228003805B4B1B882B
:10C54400312B73D80133594A1380594BB3F86C30EB
:10C55400B3B1584B1B889BB293B9574B1B88002B24
:10C5640040F08280554B1B8840F2E232934277D8E8
:10C574000533524A1380464B9B6F504A12881A80E7
:10C584004F4A1388591C11800B2B2BD913460022B8
:10C594001A804C4A1378B3FA83F35B0913704A4B3D
:10C5A4001B88A3EBD3039BB2394AD2F884201288A8
:10C5B40091B240F2771202FB01F203EB22239BB209
:10C5C400414A138047F2C062934240F287803F4B56
:10C5D4000422A3F89C213D4A92F89F3143F00803BA
:10C5E40082F89F31F0BC70470133254A13800AE773
:10C5F4004FF4005547E74FF400404EE74FF4005026
:10C6040056E713F4804F04D04FF40041224B1980B5
:10C6140053E74FF48041F9E71D4BD3F894100B888E
:10C624009BB223F001039BB20B8052E71F4B002205
:10C634001A80274A13889BB201339BB213801D4B87
:10C644001B889BB22BB11B4A13889BB2013B9BB244
:10C654001380204B1988204A118000221A8074E725
:10C66400154B01221A8086E7144B1B88052B03D92E
:10C67400053B124A13807EE70F4B00221A807AE7AB
:10C684006404002066040020B04F002056040020FB
:10C6940080370020600400205A040020AC4F0020A2
:10C6A400CDCCCCCC7C50002062040020540400206B
:10C6B40054020020F80200205C0400205E040020E4
:10C6C40058040020663F0020FC020020B400002033
:10C6D400683F00206A3F0020AE4F0020B3F5E14FD1
:10C6E40004D90E4B0322A3F89C2174E746F640229A
:10C6F400934204D9094B0222A3F89C216BE7B3F5BA
:10C70400C84F04D9054B0122A3F89C2163E7044BCD
:10C714001B6F00221A705EE7704700BFB400002050
:10C724008037002010B5024CD4F8E040A04710BD7B
:10C734008037002070B514461D4601F10D039BB2ED
:10C7440040F28F12FFF7EEFF044BD3F8EC60049B2A
:10C754002A4600212046B04770BD00BF8037002024
:10C7640010B5024CD4F8E440A04710BD8037002037
:10C77400024BD3F8C4301880704700BF80370020C4
:10C78400024BD3F8C830188880B270478037002035
:10C7940010B5044AD2F8E040D2F8D030D2F8CC2018
:10C7A400A04710BD80370020014B186A704700BFB6
:10C7B4008037002008B50B4BB3F88C3103B908BDA2
:10C7C4004FF4B4724FF0FF310748FCF7DCFC4FF430
:10C7D400B4724FF0FF310548FCF7D5FC044B00223E
:10C7E4001A80ECE7B4000020D8310020B8140020EF
:10C7F4005204002010B4184BD3F8043140BB16483F
:10C80400D0F810410020207089B29981198911F063
:10C81400010FFBD0988980B2198911F0020FFBD067
:10C82400D1B29981198911F0010FFBD0998940B2D5
:10C83400198911F0020FFBD0120A9A811A8912F099
:10C84400010FFBD09B8901232370C0B210BC704739
:10C854000148D0F81441D5E78037002010B4124BBA
:10C86400D3F80431E0B91048D0F81041002020700A
:10C8740089B29981198911F0010FFBD0988980B28E
:10C88400198911F0020FFBD092B29A811A8912F021
:10C89400010FFBD09B8901232370C0B210BC7047E9
:10C8A4000148D0F81441E1E78037002010B40C4B64
:10C8B400D3F8042178B9D3F810410023237089B246
:10C8C4009181138913F0010FFBD090890123237008
:10C8D400C0B210BC7047024BD3F81441EDE700BF5F
:10C8E4008037002010B4134BD3F80431F0B9114A47
:10C8F400D2F810410022227046229A811A8912F03D
:10C90400010FFBD09989C9B21A8912F0020FFBD02A
:10C9140000229A811A8912F0010FFBD09889C0B2C3
:10C924000123237041EA002010BC7047014AD2F869
:10C934001441DFE78037002010B483B0134BD3F8E1
:10C944000431F8B9114AD2F810410022227089B298
:10C9540099811A8912F0010FFBD09A89D2B28DF80D
:10C9640007201A8912F0020FFBD000229A811A893B
:10C9740012F0010FFBD0988901232370C0B203B0D9
:10C9840010BC7047014AD2F81441DEE7803700201A
:10C9940010B40C4AD2F860110B4B1C5C0C70D2F82A
:10C9A40068111844837A0B70D2F87031017D1970C4
:10C9B400D2F87831817F1970D2F8803100221A7050
:10C9C40010BC704780370020C8F6000810B40C4A29
:10C9D400D2F864110B4B1C5C0C70D2F86C11184427
:10C9E400837A0B70D2F87431017D1970D2F87C31DE
:10C9F400817F1970D2F8843100221A7010BC7047FC
:10CA040080370020C8F6000838B504460D4B33F8CB
:10CA140010502A4641210020FFF7ECFE2A4641210E
:10CA24000120FFF7E7FE084B33F814402246422169
:10CA34000020FFF7DFFE224642210120FFF7DAFE45
:10CA440038BD00BF18F10008C0F00008084B33F8E7
:10CA54001030084A128802FB01F202F500720649FE
:10CA6400D1F8881103EBA2239BB20B80704700BF5F
:10CA740010000020E4020020803700200A30084B18
:10CA840033F81030074A528802FB01F202F50072B3
:10CA94000549D1F88C1103EBA2239BB20B8070479C
:10CAA40010000020E40200208037002010B50D4B58
:10CAB400B3F8AC200C4B33F8123000FB03300028E1
:10CAC4000CDBC0F38F24224643210020FFF792FEA3
:10CAD400224643210120FFF78DFE10BD00F2FF30F6
:10CAE400EFE700BFB4000020ECF0000838B50546BD
:10CAF4000A4C236D0C209847D4F89031084A525DB3
:10CB04001A80D4F89421074B33F81530138001337D
:10CB1400D4F898215B08138038BD00BF803700200B
:10CB2400DCF10008B4F1000838B50446224D2B6D41
:10CB34000B209847D5F8B43100209847D5F89C319C
:10CB44001E4A125D1A80D5F8A0311D4A32F814200D
:10CB54001A800A2C06D06421174BD3F8A43119602B
:10CB6400002218E03221F7E754001648B0F8BC3030
:10CB7400642000FB0343144830F813004FF461733E
:10CB840003FB00F3114880FB03039B11CD331048D2
:10CB940020F8123001328A4203D23229E4D01446FA
:10CBA400E3E7054BD3F8A82109491160D3F8B43160
:10CBB4000120984738BD00BF80370020B4F000083A
:10CBC4009CF00008B4000020F0F60008D34D621079
:10CBD400B44F002010B5072817D80C46032920D8D5
:10CBE400DFE801F002050A0E1030C2B20FE000F1D6
:10CBF4001004E4B200220AE01830C2B2002406E0B5
:10CC040000F11804E4B2002201E0012422462021AC
:10CC14000020FFF723FE224620210120FFF71EFEFD
:10CC240010BD00242246F2E7234BB3F88C3103B93C
:10CC3400704710B5002240211046FFF7DBFD0022AB
:10CC440040210120FFF7D6FD1B4CB4F80C01C0EBCA
:10CC54000010400080B2FFF729FF94F8AC00FFF702
:10CC6400D3FE164C227821210020FFF7F7FDA2788D
:10CC740021210120FFF7F2FDFFF7FAF8C8B90E4BA6
:10CC840093F88C000C4B93F87E10FFF7A3FF00235E
:10CC94000B4A13700B4A13700B4A13700B4A137030
:10CCA4000B4AD2F8081101200870D2F80821137039
:10CCB40010BD0820E6E700BFB4000020E802002011
:10CCC40051040020500400204E0400204D04002094
:10CCD40080370020054B1880054BD3F89420138827
:10CCE4009BB243F001031380704700BFAC4F002098
:10CCF4008037002082B00190019B9BB2044A1380CC
:10CD0400034B1B889BB2002BFAD102B0704700BFC3
:10CD1400B04F002008B538B1064B1B681B68984714
:10CD2400054B18680A3008BD034B1B6801221A82A0
:10CD3400F9E700BFAC500020B050002008B538B16E
:10CD4400064B1B689B689847054B18680C3008BD58
:10CD5400034B1B6801221A82F9E700BFAC50002084
:10CD6400B050002008B5E8B1294B00221A80294BA5
:10CD74001A68137813F07F031FD1537A13F0200F2E
:10CD840002D0234A0221117013F0400F0FD0204A21
:10CD9400137843F0010313701F4B1B681B699847FA
:10CDA4001B4808BD1B4B1B6802221A82F9E7184A6C
:10CDB400137823F001031370EEE7012B24D0022B28
:10CDC40024D1527902F00F0312F0800F0ED19B0090
:10CDD40003F1804303F5B8431B6803F44053B3F5F0
:10CDE400805FD9D10A4B01221A70D5E79B0003F169
:10CDF400804303F5B8431B6803F03003102BCBD1F9
:10CE0400034B01221A70C7E70148CAE70020C8E7AC
:10CE140080500020B0500020AC500020F8B5254BC5
:10CE24001D682C8A2B7A0CB9042B28D0AB8A9C421F
:10CE34003DD804279C4200D31C46A4B2AB692046CB
:10CE440098470646002000F081FE014622463046FF
:10CE540000F09AFD2146002000F094FE2B8A1B1B53
:10CE64002B826B8A1C446C82134B30221A80134B26
:10CE74004FF440521A800F4B1B681F72F8BD104BC1
:10CE84001B78012B04D00C4B10221A800727F2E7E1
:10CE94000C4B1A6892B20C4B13445B0000221A60CC
:10CEA400054B30211980064B1A700427E3E702274B
:10CEB400C0E700BFB0500020B8500020B65000209A
:10CEC40067040020505C00400230002010B582B09E
:10CED400774B1A685378062B31D03BB9518829B95E
:10CEE400516821F47F41B1F5003F3FD0082B7AD03F
:10CEF4000A2B00F088806F4B1B686D4A12681B690F
:10CF040050789847032800F0A080694B1B681A8A60
:10CF14004FF6FF718A4200F09D80022800F09D8048
:10CF2400002A00F09A8093F900100029C0F2998039
:10CF340003221A72604B4FF440521A808FE0137828
:10CF440013F07F0FD7D19378012B07D0022B09D090
:10CF5400032BD0D1574B1B685B6A49E0554B1B68C8
:10CF6400DB6945E0534B1B681B6A41E0137813F0FF
:10CF74007F0302D19188002965D0012B1BD0022B9D
:10CF8400B9D1537903F00F0203F0700013F0800F4E
:10CF940020D1930003F1804303F5B8431B6803F4E5
:10CFA4004053464909789142A5D90028A3D1002BC2
:10CFB400A1D0434B1CE03F4B1B689B690021507977
:10CFC4009847002897D13A4B1B689B7A002B92D044
:10CFD4003B4B0DE0930003F1804303F5B8431B681A
:10CFE40003F03003DDE7137813F07F0F83D1354B63
:10CFF400002B80D02E4A126800245482936120466C
:10D004009847204681E7137803F07F03012B7FF4D0
:10D0140072AF937A002B3FF46EAF5388002B7FF4EA
:10D024006AAF536823F47F43B3F5803F7FF463AF63
:10D03400204B1B689B6900215079984700287FF496
:10D044005AAF214BD4E71E4BD2E7194B1B68092278
:10D054001A7204E009221A7201E008221A7202B05C
:10D0640010BDD98801910198824209D9019A1A8286
:10D07400104A126892F82C209A82FFF7CFFEEEE74E
:10D084008A42F5D20B49096891F82C1088B2824281
:10D0940003D20E4A00211170EAE792FBF1F001FB82
:10D0A4001022002AE4D1094A01211170E0E700BFEF
:10D0B400B050002088500020B65000209403002077
:10D0C40069CD000819CD000841CD0008670400208F
:10D0D40070B5244B1C68258AA369B3B1ADB1A18A8C
:10D0E4008D4200D30D46ADB2284698470646238AA2
:10D0F4005B1B2382638A2B446382002000F034FD8F
:10D1040001462A46304600F055FC238A43B9238A57
:10D11400A28A934210D3134B1B6803221A7270BD68
:10D12400114B4FF440521A800021084600F02AFDAA
:10D134000E4B30221A80EAE723B10A4B1B68052202
:10D144001A72ECE7074B1B6806221A72084B1A681E
:10D1540092B2084B13445B0000221A60034B302246
:10D164001A80DCE7B0500020B6500020B8500020F0
:10D17400505C00400230002010B50C4B1B68DA787C
:10D184000B4949788A420AD89C7854B9998851B98C
:10D194009A72084B1B685B689847204610BD0224AE
:10D1A400FBE70224F9E70224F7E700BFB0500020B0
:10D1B40094030020AC50002010B5124B1A68124C96
:10D1C40023689269D9785879904723689A7A7AB112
:10D1D40088B91A798AB99C788CB90C4B1B68DB68BE
:10D1E4009847094B1B685A79DA72DA781A7300E0A7
:10D1F4000224204610BD0224FBE70224F9E702249E
:10D20400F7E700BF88500020B0500020AC50002049
:10D2140038B5454B1A68137813F07F0303D0022BFB
:10D2240008D0022404E0537A23F02003537200242C
:10D23400204638BD5388002B6BD11479002C6AD159
:10D24400537923F080005BB2002B22DB810001F1D3
:10D25400804101F5B841096801F44051334D2D78FE
:10D2640085425AD900295AD0927A002A59D0002BE3
:10D2740018DB850005F1804505F5B8452B6803F4F6
:10D284004053B3F5805F20D0294B1B685B699847F6
:10D29400CEE7810001F1804101F5B841096801F050
:10D2A4003001DBE7830003F1804303F5B8431B68D7
:10D2B40003F03003102BE7D1C5B2284600F011FC6F
:10D2C4003021284600F09DFBDEE790B9194B93F816
:10D2D4002C1000F065FC2B689BB223F4804323F0F0
:10D2E400700383F4405343F4004343F080032B6002
:10D2F400CAE700F0E2FB2B689BB223F4804323F0DF
:10D30400700383F4405343F4004343F080032B60E1
:10D31400BAE702248CE702248AE7022488E702247D
:10D3240086E7022484E700BFB05000209403002065
:10D33400AC5000206403002010B52D4B18684279CE
:10D3440022F0800352B2002A2DDB990001F18041C2
:10D3540001F5B841096801F44051264C24789C42F7
:10D364003DD94488002C3CD100293CD0817A002945
:10D374003BD0002A20DB9B0003F1804303F5B84334
:10D384001A6892B222F4804222F0700282F480522F
:10D3940042F4004242F080021A60174B1B689B69FA
:10D3A4009847002010BD990001F1804101F5B84172
:10D3B400096801F03001D0E79B0003F1804303F5D5
:10D3C400B8431A6892B222F4E04222F0400282F09A
:10D3D400100242F4004242F080021A60DDE70220AB
:10D3E400E0E70220DEE70220DCE70220DAE700BF04
:10D3F400B050002094030020AC50002008B5064B28
:10D404001A68537A43F020035372044B1B68DB6998
:10D414009847002008BD00BFB0500020AC50002049
:10D4240010B5354B1A685478137813F07F032DD157
:10D43400092C11D0052C13D0032C1FD0012C29D179
:10D44400D378012B26D1938823BB537A13F0200F72
:10D4540020D0FFF7DDFE01E0FFF78EFE08B319E0F0
:10D4640092F90330002B3CDB9378002B3BD193885B
:10D47400002B3AD1907AA0B108221FE0D378012B77
:10D4840008D1938833B9FFF7B9FFE7E7012B19D027
:10D49400022B1CD0194B1B685B6920469847032854
:10D4A40025D030BB164B1A6892B2164B13445B005E
:10D4B40000221A60144B30221A8006220E4B1B687D
:10D4C4001A7210BD0B2CE5D1FFF776FEC6E7012CCE
:10D4D40004D0032CDED1FFF72FFFBFE7FFF798FE40
:10D4E400BCE70822EAE70822E8E70822E6E709227F
:10D4F400E4E70822E2E700BFB05000208850002093
:10D50400505C004002300020B8500020054B1B68DE
:10D514005A8A10B10868104470478888801A1882A3
:10D5240000207047B050002008B50C4B93F82C1025
:10D53400002000F035FB0A4B1B68187A082804D039
:10D54400092814BF0020012008BD064B4FF4805267
:10D554001A80054B10221A80F2E700BF64030020F2
:10D56400B0500020B6500020B850002070B51C4BBD
:10D574001A6892B21B4B13445B001B881A4A126848
:10D58400117A09290AD1184B1B6801221A72DB8807
:10D5940013BBFFF745FFFFF7C7FF70BD5B0003F147
:10D5A400804303F5C0431C4614F8011B11700E4D53
:10D5B4002A685B7853702E68B4F8030000F022FBED
:10D5C40070802E68B4F8070000F01CFBB0802B6854
:10D5D400B4F80B20DA80D6E7FFF778FCDBE700BF6E
:10D5E400505C004004300020B050002008B5124BBD
:10D5F4001B681B7A022B15D0042B1AD0032B05D0E1
:10D60400052B03D0072B07D008220CE0FFF760FDA1
:10D61400094B1B681A7A06E0084B1B68DB689847BD
:10D62400082200E00822044B1B681A72FFF77CFFF3
:10D6340008BD0822F7E700BFB05000208850002042
:10D6440030B40F4B1D780021A94212D2CCB2A200F3
:10D6540002F1804202F5B842136823F0F0031B057F
:10D664001B0D43F4004343F0800323431360013153
:10D67400EAE740F08000034B186030BC704700BFFD
:10D68400940300204C5C004008B5154B1A68137ACB
:10D69400022B05D0042B03D0062B0CD0082204E067
:10D6A400FFF7BCFB0E4B1B681A7A0D4B1B681A72F2
:10D6B400FFF73AFF08BD5378052B05D0094B1B68CB
:10D6C4009B6898470822F0E7137813F07F0FF5D191
:10D6D400D078FFF7B5FF044B1B681B6A9847EDE74A
:10D6E400B050002088500020AC500020704700004B
:10D6F40008B5074B074A136002221A72064B074A01
:10D704001360074A074911601B68984708BD00BFAA
:10D7140090500020B0500020640300208850002066
:10D72400AC500020C003002010B582B00023ADF837
:10D73400063093E01446136823F4E14323F07003A6
:10D744001B041B0C1360FFF79FFF236823F4804323
:10D7540023F040031B041B0C834A128812F4805FDD
:10D7640001D083F48053804A128812F4005F01D000
:10D7740083F400537D4A128812F0100F01D083F015
:10D7840010037A4A128812F0200F01D083F020038C
:10D794009BB243F4004343F08003754A136002B024
:10D7A40010BD734C236823F070031B051B0D23600D
:10D7B400FFF7DCFE236823F4804323F040031B04BB
:10D7C4001B0C694A128812F4805F01D083F48053E1
:10D7D400654A128812F4005F01D083F40053634A4F
:10D7E400128812F0100F01D083F010035F4A1288E0
:10D7F40012F0200F01D083F020039BB243F40043C6
:10D8040043F080035A4A1360C9E79B0003F1804345
:10D8140003F5B8431A6892B2ADF80620BDF80620A5
:10D8240012F4004F40F09280BDF8063013F0800FE0
:10D8340014D050490B789B0003F1804303F5B8439F
:10D844001A6822F4E14222F070021204120C1A60E7
:10D854000B78013B484A52F823309847474B1B68E2
:10D8640099B2474A118013F4004F98D0444B1B8857
:10D8740003F00F033F4A1370002BC6D13C4A1168D2
:10D8840089B2394B1980198801F030013748018079
:10D89400198801F440511980136823F4804323F05C
:10D8A40040031B041B0C83F4005383F0200343F454
:10D8B400004343F080031360314B1B8813F0100FB7
:10D8C4003FF438AF2A4B1B689BB2ADF80630BDF865
:10D8D400063013F4006F7FF464AFBDF8063013F420
:10D8E400004FBBD0224C236823F070031B051B0D93
:10D8F4002360FFF77BFE236823F4804323F0400377
:10D904001B041B0C184A128812F4805F01D083F4A4
:10D914008053154A128812F4005F01D083F4005337
:10D92400124A128812F0100F01D083F010030F4A2C
:10D93400128812F0200F01D083F020039BB243F42D
:10D94400004343F080030A4A136028E71A6822F070
:10D9540070021205120D1A60064B1B78013B094A2E
:10D9640052F8233098475FE7B6500020B8500020A3
:10D97400005C00408C5000201C030020445C0040EC
:10D9840038510020380300200132521001F10051B7
:10D9940001F54051490062B110B40378447843EA78
:10D9A400042321F8043B0230013A002AF5D110BCCB
:10D9B400704770470132521001F1005101F5405196
:10D9C40049002AB151F8043B20F8023B013AF8E738
:10D9D4007047000020F0070080B2014B18607047C8
:10D9E400505C0040800000F1804000F5B8400368BE
:10D9F4001BB223F4EC4323F070030B439BB203608C
:10DA04007047800000F1804000F5B84003689BB285
:10DA140023F4E04323F040039BB211F0100F01D034
:10DA240083F0100311F0200F01D083F0200343F49E
:10DA3400004343F0800303607047800000F180409E
:10DA440000F5B84003689BB223F4804323F07003CD
:10DA54009BB211F4805F01D083F4805311F4005F12
:10DA640001D083F4005343F4004343F08003036084
:10DA74007047800000F1804000F5B84003689BB215
:10DA840023F4804323F0700383F4405343F40043AE
:10DA940043F0800303607047800000F1804000F58C
:10DAA400B84003681BB223F4F8731B051B0D43F441
:10DAB400004343F0800303607047800000F180401E
:10DAC40000F5B840036813F4804F09D0036823F0CD
